{
  "_format": "hh-sol-artifact-1",
  "contractName": "VolcanoCoinV2",
  "sourceName": "contracts/VolcanoCoinV2.sol",
  "abi": [
    {
      "anonymous": false,
      "inputs": [
        {
          "indexed": false,
          "internalType": "address",
          "name": "previousAdmin",
          "type": "address"
        },
        {
          "indexed": false,
          "internalType": "address",
          "name": "newAdmin",
          "type": "address"
        }
      ],
      "name": "AdminChanged",
      "type": "event"
    },
    {
      "anonymous": false,
      "inputs": [
        {
          "indexed": true,
          "internalType": "address",
          "name": "owner",
          "type": "address"
        },
        {
          "indexed": true,
          "internalType": "address",
          "name": "spender",
          "type": "address"
        },
        {
          "indexed": false,
          "internalType": "uint256",
          "name": "value",
          "type": "uint256"
        }
      ],
      "name": "Approval",
      "type": "event"
    },
    {
      "anonymous": false,
      "inputs": [
        {
          "indexed": true,
          "internalType": "address",
          "name": "beacon",
          "type": "address"
        }
      ],
      "name": "BeaconUpgraded",
      "type": "event"
    },
    {
      "anonymous": false,
      "inputs": [
        {
          "indexed": true,
          "internalType": "address",
          "name": "previousOwner",
          "type": "address"
        },
        {
          "indexed": true,
          "internalType": "address",
          "name": "newOwner",
          "type": "address"
        }
      ],
      "name": "OwnershipTransferred",
      "type": "event"
    },
    {
      "anonymous": false,
      "inputs": [
        {
          "indexed": false,
          "internalType": "address",
          "name": "recipient",
          "type": "address"
        },
        {
          "indexed": false,
          "internalType": "address",
          "name": "spender",
          "type": "address"
        },
        {
          "indexed": false,
          "internalType": "uint256",
          "name": "amount",
          "type": "uint256"
        },
        {
          "indexed": false,
          "internalType": "uint256",
          "name": "identifier",
          "type": "uint256"
        },
        {
          "indexed": false,
          "internalType": "uint256",
          "name": "timestamp",
          "type": "uint256"
        },
        {
          "indexed": false,
          "internalType": "enum VolcanoCoinV2.PaymentType",
          "name": "paymentType",
          "type": "uint8"
        },
        {
          "indexed": false,
          "internalType": "string",
          "name": "comment",
          "type": "string"
        }
      ],
      "name": "PaymentRecordFound",
      "type": "event"
    },
    {
      "anonymous": false,
      "inputs": [
        {
          "indexed": true,
          "internalType": "address",
          "name": "from",
          "type": "address"
        },
        {
          "indexed": true,
          "internalType": "address",
          "name": "to",
          "type": "address"
        },
        {
          "indexed": false,
          "internalType": "uint256",
          "name": "value",
          "type": "uint256"
        }
      ],
      "name": "Transfer",
      "type": "event"
    },
    {
      "anonymous": false,
      "inputs": [
        {
          "indexed": true,
          "internalType": "address",
          "name": "implementation",
          "type": "address"
        }
      ],
      "name": "Upgraded",
      "type": "event"
    },
    {
      "inputs": [
        {
          "internalType": "address",
          "name": "owner",
          "type": "address"
        },
        {
          "internalType": "address",
          "name": "spender",
          "type": "address"
        }
      ],
      "name": "allowance",
      "outputs": [
        {
          "internalType": "uint256",
          "name": "",
          "type": "uint256"
        }
      ],
      "stateMutability": "view",
      "type": "function"
    },
    {
      "inputs": [
        {
          "internalType": "address",
          "name": "spender",
          "type": "address"
        },
        {
          "internalType": "uint256",
          "name": "amount",
          "type": "uint256"
        }
      ],
      "name": "approve",
      "outputs": [
        {
          "internalType": "bool",
          "name": "",
          "type": "bool"
        }
      ],
      "stateMutability": "nonpayable",
      "type": "function"
    },
    {
      "inputs": [
        {
          "internalType": "address",
          "name": "account",
          "type": "address"
        }
      ],
      "name": "balanceOf",
      "outputs": [
        {
          "internalType": "uint256",
          "name": "",
          "type": "uint256"
        }
      ],
      "stateMutability": "view",
      "type": "function"
    },
    {
      "inputs": [
        {
          "internalType": "bytes32",
          "name": "_bytes32",
          "type": "bytes32"
        }
      ],
      "name": "bytes32ToString",
      "outputs": [
        {
          "internalType": "string",
          "name": "",
          "type": "string"
        }
      ],
      "stateMutability": "pure",
      "type": "function"
    },
    {
      "inputs": [],
      "name": "decimals",
      "outputs": [
        {
          "internalType": "uint8",
          "name": "",
          "type": "uint8"
        }
      ],
      "stateMutability": "view",
      "type": "function"
    },
    {
      "inputs": [
        {
          "internalType": "address",
          "name": "spender",
          "type": "address"
        },
        {
          "internalType": "uint256",
          "name": "subtractedValue",
          "type": "uint256"
        }
      ],
      "name": "decreaseAllowance",
      "outputs": [
        {
          "internalType": "bool",
          "name": "",
          "type": "bool"
        }
      ],
      "stateMutability": "nonpayable",
      "type": "function"
    },
    {
      "inputs": [
        {
          "internalType": "address",
          "name": "_sender",
          "type": "address"
        }
      ],
      "name": "getPayments",
      "outputs": [
        {
          "internalType": "bool",
          "name": "",
          "type": "bool"
        }
      ],
      "stateMutability": "nonpayable",
      "type": "function"
    },
    {
      "inputs": [
        {
          "internalType": "address",
          "name": "spender",
          "type": "address"
        },
        {
          "internalType": "uint256",
          "name": "addedValue",
          "type": "uint256"
        }
      ],
      "name": "increaseAllowance",
      "outputs": [
        {
          "internalType": "bool",
          "name": "",
          "type": "bool"
        }
      ],
      "stateMutability": "nonpayable",
      "type": "function"
    },
    {
      "inputs": [
        {
          "internalType": "string",
          "name": "name_",
          "type": "string"
        },
        {
          "internalType": "string",
          "name": "symbol_",
          "type": "string"
        },
        {
          "internalType": "address",
          "name": "_administrator",
          "type": "address"
        }
      ],
      "name": "initialize",
      "outputs": [],
      "stateMutability": "nonpayable",
      "type": "function"
    },
    {
      "inputs": [
        {
          "internalType": "uint256",
          "name": "_amount",
          "type": "uint256"
        }
      ],
      "name": "mintToOwner",
      "outputs": [],
      "stateMutability": "nonpayable",
      "type": "function"
    },
    {
      "inputs": [],
      "name": "name",
      "outputs": [
        {
          "internalType": "string",
          "name": "",
          "type": "string"
        }
      ],
      "stateMutability": "view",
      "type": "function"
    },
    {
      "inputs": [],
      "name": "owner",
      "outputs": [
        {
          "internalType": "address",
          "name": "",
          "type": "address"
        }
      ],
      "stateMutability": "view",
      "type": "function"
    },
    {
      "inputs": [
        {
          "internalType": "address",
          "name": "",
          "type": "address"
        },
        {
          "internalType": "uint256",
          "name": "",
          "type": "uint256"
        }
      ],
      "name": "payments",
      "outputs": [
        {
          "internalType": "address",
          "name": "recipient",
          "type": "address"
        },
        {
          "internalType": "address",
          "name": "spender",
          "type": "address"
        },
        {
          "internalType": "uint256",
          "name": "amount",
          "type": "uint256"
        },
        {
          "internalType": "uint256",
          "name": "identifier",
          "type": "uint256"
        },
        {
          "internalType": "uint256",
          "name": "timestamp",
          "type": "uint256"
        },
        {
          "internalType": "enum VolcanoCoinV2.PaymentType",
          "name": "paymentType",
          "type": "uint8"
        },
        {
          "internalType": "string",
          "name": "comment",
          "type": "string"
        }
      ],
      "stateMutability": "view",
      "type": "function"
    },
    {
      "inputs": [],
      "name": "renounceOwnership",
      "outputs": [],
      "stateMutability": "nonpayable",
      "type": "function"
    },
    {
      "inputs": [],
      "name": "symbol",
      "outputs": [
        {
          "internalType": "string",
          "name": "",
          "type": "string"
        }
      ],
      "stateMutability": "view",
      "type": "function"
    },
    {
      "inputs": [
        {
          "internalType": "uint8",
          "name": "_uint8",
          "type": "uint8"
        }
      ],
      "name": "toByte",
      "outputs": [
        {
          "internalType": "bytes1",
          "name": "",
          "type": "bytes1"
        }
      ],
      "stateMutability": "pure",
      "type": "function"
    },
    {
      "inputs": [],
      "name": "totalSupply",
      "outputs": [
        {
          "internalType": "uint256",
          "name": "",
          "type": "uint256"
        }
      ],
      "stateMutability": "view",
      "type": "function"
    },
    {
      "inputs": [
        {
          "internalType": "address",
          "name": "_recipient",
          "type": "address"
        },
        {
          "internalType": "uint256",
          "name": "_amount",
          "type": "uint256"
        }
      ],
      "name": "transfer",
      "outputs": [
        {
          "internalType": "bool",
          "name": "",
          "type": "bool"
        }
      ],
      "stateMutability": "nonpayable",
      "type": "function"
    },
    {
      "inputs": [
        {
          "internalType": "address",
          "name": "_sender",
          "type": "address"
        },
        {
          "internalType": "address",
          "name": "_recipient",
          "type": "address"
        },
        {
          "internalType": "uint256",
          "name": "_amount",
          "type": "uint256"
        }
      ],
      "name": "transferFrom",
      "outputs": [
        {
          "internalType": "bool",
          "name": "",
          "type": "bool"
        }
      ],
      "stateMutability": "nonpayable",
      "type": "function"
    },
    {
      "inputs": [
        {
          "internalType": "address",
          "name": "newOwner",
          "type": "address"
        }
      ],
      "name": "transferOwnership",
      "outputs": [],
      "stateMutability": "nonpayable",
      "type": "function"
    },
    {
      "inputs": [
        {
          "internalType": "address",
          "name": "_sender",
          "type": "address"
        },
        {
          "internalType": "uint256",
          "name": "_number",
          "type": "uint256"
        },
        {
          "internalType": "uint8",
          "name": "_type",
          "type": "uint8"
        },
        {
          "internalType": "string",
          "name": "_comment",
          "type": "string"
        }
      ],
      "name": "updatePayment",
      "outputs": [],
      "stateMutability": "nonpayable",
      "type": "function"
    },
    {
      "inputs": [
        {
          "internalType": "address",
          "name": "_sender",
          "type": "address"
        },
        {
          "internalType": "uint256",
          "name": "_number",
          "type": "uint256"
        },
        {
          "internalType": "uint8",
          "name": "_type",
          "type": "uint8"
        }
      ],
      "name": "updatePaymentType",
      "outputs": [],
      "stateMutability": "nonpayable",
      "type": "function"
    },
    {
      "inputs": [
        {
          "internalType": "address",
          "name": "newImplementation",
          "type": "address"
        }
      ],
      "name": "upgradeTo",
      "outputs": [],
      "stateMutability": "nonpayable",
      "type": "function"
    },
    {
      "inputs": [
        {
          "internalType": "address",
          "name": "newImplementation",
          "type": "address"
        },
        {
          "internalType": "bytes",
          "name": "data",
          "type": "bytes"
        }
      ],
      "name": "upgradeToAndCall",
      "outputs": [],
      "stateMutability": "payable",
      "type": "function"
    },
    {
      "inputs": [],
      "name": "version",
      "outputs": [
        {
          "internalType": "uint256",
          "name": "",
          "type": "uint256"
        }
      ],
      "stateMutability": "view",
      "type": "function"
    }
  ],
  "bytecode": "0x60a06040523073ffffffffffffffffffffffffffffffffffffffff1660809073ffffffffffffffffffffffffffffffffffffffff1660601b81525034801561004657600080fd5b5060805160601c61493861007a60003960008181610c1b01528181610caa01528181610ed90152610f6801526149386000f3fe6080604052600436106101665760003560e01c806354fd4d50116100d15780639c62aaab1161008a578063a9059cbb11610064578063a9059cbb14610555578063ab63385c14610592578063dd62ed3e146105d5578063f2fde38b1461061257610166565b80639c62aaab146104b2578063a457c2d7146104db578063a86b73f01461051857610166565b806354fd4d50146103a057806370a08231146103cb578063715018a6146104085780638da5cb5b1461041f5780639201de551461044a57806395d89b411461048757610166565b8063313ce56711610123578063313ce567146102a15780633659cfe6146102cc57806339509351146102f557806348043f0d146103325780634f1ef2861461035b57806354aec5fc1461037757610166565b806306fdde031461016b578063077f224a14610196578063095ea7b3146101bf57806318160ddd146101fc5780631d6a17111461022757806323b872dd14610264575b600080fd5b34801561017757600080fd5b5061018061063b565b60405161018d9190613a61565b60405180910390f35b3480156101a257600080fd5b506101bd60048036038101906101b891906132af565b6106cd565b005b3480156101cb57600080fd5b506101e660048036038101906101e19190613167565b610813565b6040516101f39190613a2b565b60405180910390f35b34801561020857600080fd5b50610211610831565b60405161021e9190613d03565b60405180910390f35b34801561023357600080fd5b5061024e6004803603810190610249919061304b565b61083b565b60405161025b9190613a2b565b60405180910390f35b34801561027057600080fd5b5061028b600480360381019061028691906130b8565b610be7565b6040516102989190613a2b565b60405180910390f35b3480156102ad57600080fd5b506102b6610c10565b6040516102c39190613d1e565b60405180910390f35b3480156102d857600080fd5b506102f360048036038101906102ee919061304b565b610c19565b005b34801561030157600080fd5b5061031c60048036038101906103179190613167565b610da2565b6040516103299190613a2b565b60405180910390f35b34801561033e57600080fd5b506103596004803603810190610354919061333a565b610e4e565b005b6103756004803603810190610370919061310b565b610ed7565b005b34801561038357600080fd5b5061039e600480360381019061039991906131a7565b611014565b005b3480156103ac57600080fd5b506103b561130b565b6040516103c29190613d03565b60405180910390f35b3480156103d757600080fd5b506103f260048036038101906103ed919061304b565b611310565b6040516103ff9190613d03565b60405180910390f35b34801561041457600080fd5b5061041d611359565b005b34801561042b57600080fd5b506104346113e1565b6040516104419190613924565b60405180910390f35b34801561045657600080fd5b50610471600480360381019061046c9190613282565b61140b565b60405161047e9190613a61565b60405180910390f35b34801561049357600080fd5b5061049c6115e0565b6040516104a99190613a61565b60405180910390f35b3480156104be57600080fd5b506104d960048036038101906104d491906131fa565b611672565b005b3480156104e757600080fd5b5061050260048036038101906104fd9190613167565b6118c2565b60405161050f9190613a2b565b60405180910390f35b34801561052457600080fd5b5061053f600480360381019061053a9190613367565b6119ad565b60405161054c9190613a46565b60405180910390f35b34801561056157600080fd5b5061057c60048036038101906105779190613167565b6119ea565b6040516105899190613a2b565b60405180910390f35b34801561059e57600080fd5b506105b960048036038101906105b49190613167565b611a18565b6040516105cc979695949392919061393f565b60405180910390f35b3480156105e157600080fd5b506105fc60048036038101906105f79190613078565b611b4c565b6040516106099190613d03565b60405180910390f35b34801561061e57600080fd5b506106396004803603810190610634919061304b565b611bd3565b005b60606036805461064a90614039565b80601f016020809104026020016040519081016040528092919081815260200182805461067690614039565b80156106c35780601f10610698576101008083540402835291602001916106c3565b820191906000526020600020905b8154815290600101906020018083116106a657829003601f168201915b5050505050905090565b600060019054906101000a900460ff166106f55760008054906101000a900460ff16156106fe565b6106fd611ccb565b5b61073d576040517f08c379a000000000000000000000000000000000000000000000000000000000815260040161073490613b83565b60405180910390fd5b60008060019054906101000a900460ff16159050801561078d576001600060016101000a81548160ff02191690831515021790555060016000806101000a81548160ff0219169083151502179055505b6107978484611cdc565b61079f611d41565b6107ab33612710611da2565b8160fc60006101000a81548173ffffffffffffffffffffffffffffffffffffffff021916908373ffffffffffffffffffffffffffffffffffffffff160217905550801561080d5760008060016101000a81548160ff0219169083151502179055505b50505050565b6000610827610820611f03565b8484611f0b565b6001905092915050565b6000603554905090565b600080600090505b60fd60008473ffffffffffffffffffffffffffffffffffffffff1673ffffffffffffffffffffffffffffffffffffffff16815260200190815260200160002080549050811015610bdd577fbd843e862c65b0dfb4c5a072cf1dbdd4e8ed9ea60b7b263613506b8dc9cdae0f60fd60008573ffffffffffffffffffffffffffffffffffffffff1673ffffffffffffffffffffffffffffffffffffffff16815260200190815260200160002082815481106108ff576108fe6141ef565b5b906000526020600020906007020160000160009054906101000a900473ffffffffffffffffffffffffffffffffffffffff1660fd60008673ffffffffffffffffffffffffffffffffffffffff1673ffffffffffffffffffffffffffffffffffffffff1681526020019081526020016000208381548110610982576109816141ef565b5b906000526020600020906007020160010160009054906101000a900473ffffffffffffffffffffffffffffffffffffffff1660fd60008773ffffffffffffffffffffffffffffffffffffffff1673ffffffffffffffffffffffffffffffffffffffff1681526020019081526020016000208481548110610a0557610a046141ef565b5b90600052602060002090600702016002015460fd60008873ffffffffffffffffffffffffffffffffffffffff1673ffffffffffffffffffffffffffffffffffffffff1681526020019081526020016000208581548110610a6857610a676141ef565b5b90600052602060002090600702016003015460fd60008973ffffffffffffffffffffffffffffffffffffffff1673ffffffffffffffffffffffffffffffffffffffff1681526020019081526020016000208681548110610acb57610aca6141ef565b5b90600052602060002090600702016004015460fd60008a73ffffffffffffffffffffffffffffffffffffffff1673ffffffffffffffffffffffffffffffffffffffff1681526020019081526020016000208781548110610b2e57610b2d6141ef565b5b906000526020600020906007020160050160009054906101000a900460ff1660fd60008b73ffffffffffffffffffffffffffffffffffffffff1673ffffffffffffffffffffffffffffffffffffffff1681526020019081526020016000208881548110610b9e57610b9d6141ef565b5b9060005260206000209060070201600601604051610bc297969594939291906139b5565b60405180910390a18080610bd59061409c565b915050610843565b5060019050919050565b6000610bfc84610bf5611f03565b85856120d6565b610c078484846122da565b90509392505050565b60006012905090565b7f000000000000000000000000000000000000000000000000000000000000000073ffffffffffffffffffffffffffffffffffffffff163073ffffffffffffffffffffffffffffffffffffffff161415610ca8576040517f08c379a0000000000000000000000000000000000000000000000000000000008152600401610c9f90613b03565b60405180910390fd5b7f000000000000000000000000000000000000000000000000000000000000000073ffffffffffffffffffffffffffffffffffffffff16610ce76123d2565b73ffffffffffffffffffffffffffffffffffffffff1614610d3d576040517f08c379a0000000000000000000000000000000000000000000000000000000008152600401610d3490613b43565b60405180910390fd5b610d4681612429565b610d9f81600067ffffffffffffffff811115610d6557610d6461421e565b5b6040519080825280601f01601f191660200182016040528015610d975781602001600182028036833780820191505090505b5060006124a8565b50565b6000610e44610daf611f03565b848460346000610dbd611f03565b73ffffffffffffffffffffffffffffffffffffffff1673ffffffffffffffffffffffffffffffffffffffff16815260200190815260200160002060008873ffffffffffffffffffffffffffffffffffffffff1673ffffffffffffffffffffffffffffffffffffffff16815260200190815260200160002054610e3f9190613e22565b611f0b565b6001905092915050565b610e56611f03565b73ffffffffffffffffffffffffffffffffffffffff16610e746113e1565b73ffffffffffffffffffffffffffffffffffffffff1614610eca576040517f08c379a0000000000000000000000000000000000000000000000000000000008152600401610ec190613be3565b60405180910390fd5b610ed43382611da2565b50565b7f000000000000000000000000000000000000000000000000000000000000000073ffffffffffffffffffffffffffffffffffffffff163073ffffffffffffffffffffffffffffffffffffffff161415610f66576040517f08c379a0000000000000000000000000000000000000000000000000000000008152600401610f5d90613b03565b60405180910390fd5b7f000000000000000000000000000000000000000000000000000000000000000073ffffffffffffffffffffffffffffffffffffffff16610fa56123d2565b73ffffffffffffffffffffffffffffffffffffffff1614610ffb576040517f08c379a0000000000000000000000000000000000000000000000000000000008152600401610ff290613b43565b60405180910390fd5b61100482612429565b611010828260016124a8565b5050565b60fc60009054906101000a900473ffffffffffffffffffffffffffffffffffffffff1673ffffffffffffffffffffffffffffffffffffffff163373ffffffffffffffffffffffffffffffffffffffff161461106e57600080fd5b60058160ff16106110b4576040517f08c379a00000000000000000000000000000000000000000000000000000000081526004016110ab90613cc3565b60405180910390fd5b60fd60008473ffffffffffffffffffffffffffffffffffffffff1673ffffffffffffffffffffffffffffffffffffffff168152602001908152602001600020805490508210611138576040517f08c379a000000000000000000000000000000000000000000000000000000000815260040161112f90613b63565b60405180910390fd5b8060ff16600481111561114e5761114d614191565b5b60fd60008573ffffffffffffffffffffffffffffffffffffffff1673ffffffffffffffffffffffffffffffffffffffff168152602001908152602001600020838154811061119f5761119e6141ef565b5b906000526020600020906007020160050160006101000a81548160ff021916908360048111156111d2576111d1614191565b5b0217905550600061120a336040516020016111ed91906138a1565b60405160208183030381529060405261120590613f7e565b61140b565b905060fd60008573ffffffffffffffffffffffffffffffffffffffff1673ffffffffffffffffffffffffffffffffffffffff168152602001908152602001600020838154811061125d5761125c6141ef565b5b9060005260206000209060070201600601816040516020016112809291906138d3565b60405160208183030381529060405260fd60008673ffffffffffffffffffffffffffffffffffffffff1673ffffffffffffffffffffffffffffffffffffffff16815260200190815260200160002084815481106112e0576112df6141ef565b5b90600052602060002090600702016006019080519060200190611304929190612d98565b5050505050565b600281565b6000603360008373ffffffffffffffffffffffffffffffffffffffff1673ffffffffffffffffffffffffffffffffffffffff168152602001908152602001600020549050919050565b611361611f03565b73ffffffffffffffffffffffffffffffffffffffff1661137f6113e1565b73ffffffffffffffffffffffffffffffffffffffff16146113d5576040517f08c379a00000000000000000000000000000000000000000000000000000000081526004016113cc90613be3565b60405180910390fd5b6113df6000612679565b565b6000606560009054906101000a900473ffffffffffffffffffffffffffffffffffffffff16905090565b6060600080602867ffffffffffffffff81111561142b5761142a61421e565b5b6040519080825280601f01601f19166020018201604052801561145d5781602001600182028036833780820191505090505b509050600091505b80518260ff1610156115b75760006004856002856114839190613eaf565b60ff1660208110611497576114966141ef565b5b1a60f81b7effffffffffffffffffffffffffffffffffffffffffffffffffffffffffffff1916901c60f81c90506000600f60f81b866002866114d99190613eaf565b60ff16602081106114ed576114ec6141ef565b5b1a60f81b1660f81c9050611500826119ad565b838560ff1681518110611516576115156141ef565b5b60200101907effffffffffffffffffffffffffffffffffffffffffffffffffffffffffffff1916908160001a9053506001846115529190613e78565b935061155d816119ad565b838560ff1681518110611573576115726141ef565b5b60200101907effffffffffffffffffffffffffffffffffffffffffffffffffffffffffffff1916908160001a905350505081806115af906140e5565b925050611465565b806040516020016115c89190613902565b60405160208183030381529060405292505050919050565b6060603780546115ef90614039565b80601f016020809104026020016040519081016040528092919081815260200182805461161b90614039565b80156116685780601f1061163d57610100808354040283529160200191611668565b820191906000526020600020905b81548152906001019060200180831161164b57829003601f168201915b5050505050905090565b3373ffffffffffffffffffffffffffffffffffffffff168573ffffffffffffffffffffffffffffffffffffffff16146116e0576040517f08c379a00000000000000000000000000000000000000000000000000000000081526004016116d790613c83565b60405180910390fd5b60058360ff1610611726576040517f08c379a000000000000000000000000000000000000000000000000000000000815260040161171d90613cc3565b60405180910390fd5b60fd60008673ffffffffffffffffffffffffffffffffffffffff1673ffffffffffffffffffffffffffffffffffffffff1681526020019081526020016000208054905084106117aa576040517f08c379a00000000000000000000000000000000000000000000000000000000081526004016117a190613b63565b60405180910390fd5b818160fd60008873ffffffffffffffffffffffffffffffffffffffff1673ffffffffffffffffffffffffffffffffffffffff16815260200190815260200160002086815481106117fd576117fc6141ef565b5b9060005260206000209060070201600601919061181b929190612e1e565b508260ff16600481111561183257611831614191565b5b60fd60008773ffffffffffffffffffffffffffffffffffffffff1673ffffffffffffffffffffffffffffffffffffffff1681526020019081526020016000208581548110611883576118826141ef565b5b906000526020600020906007020160050160006101000a81548160ff021916908360048111156118b6576118b5614191565b5b02179055505050505050565b600080603460006118d1611f03565b73ffffffffffffffffffffffffffffffffffffffff1673ffffffffffffffffffffffffffffffffffffffff16815260200190815260200160002060008573ffffffffffffffffffffffffffffffffffffffff1673ffffffffffffffffffffffffffffffffffffffff1681526020019081526020016000205490508281101561198e576040517f08c379a000000000000000000000000000000000000000000000000000000000815260040161198590613ca3565b60405180910390fd5b6119a2611999611f03565b85858403611f0b565b600191505092915050565b6000600a8260ff1610156119d2576030826119c89190613e78565b60f81b90506119e5565b6057826119df9190613e78565b60f81b90505b919050565b6000611a066119f7611f03565b6119ff611f03565b85856120d6565b611a10838361273f565b905092915050565b60fd6020528160005260406000208181548110611a3457600080fd5b9060005260206000209060070201600091509150508060000160009054906101000a900473ffffffffffffffffffffffffffffffffffffffff16908060010160009054906101000a900473ffffffffffffffffffffffffffffffffffffffff16908060020154908060030154908060040154908060050160009054906101000a900460ff1690806006018054611ac990614039565b80601f0160208091040260200160405190810160405280929190818152602001828054611af590614039565b8015611b425780601f10611b1757610100808354040283529160200191611b42565b820191906000526020600020905b815481529060010190602001808311611b2557829003601f168201915b5050505050905087565b6000603460008473ffffffffffffffffffffffffffffffffffffffff1673ffffffffffffffffffffffffffffffffffffffff16815260200190815260200160002060008373ffffffffffffffffffffffffffffffffffffffff1673ffffffffffffffffffffffffffffffffffffffff16815260200190815260200160002054905092915050565b611bdb611f03565b73ffffffffffffffffffffffffffffffffffffffff16611bf96113e1565b73ffffffffffffffffffffffffffffffffffffffff1614611c4f576040517f08c379a0000000000000000000000000000000000000000000000000000000008152600401611c4690613be3565b60405180910390fd5b600073ffffffffffffffffffffffffffffffffffffffff168173ffffffffffffffffffffffffffffffffffffffff161415611cbf576040517f08c379a0000000000000000000000000000000000000000000000000000000008152600401611cb690613ac3565b60405180910390fd5b611cc881612679565b50565b6000611cd63061275d565b15905090565b600060019054906101000a900460ff16611d2b576040517f08c379a0000000000000000000000000000000000000000000000000000000008152600401611d2290613c63565b60405180910390fd5b611d33612770565b611d3d82826127c1565b5050565b600060019054906101000a900460ff16611d90576040517f08c379a0000000000000000000000000000000000000000000000000000000008152600401611d8790613c63565b60405180910390fd5b611d98612770565b611da0612842565b565b600073ffffffffffffffffffffffffffffffffffffffff168273ffffffffffffffffffffffffffffffffffffffff161415611e12576040517f08c379a0000000000000000000000000000000000000000000000000000000008152600401611e0990613ce3565b60405180910390fd5b611e1e600083836128a3565b8060356000828254611e309190613e22565b9250508190555080603360008473ffffffffffffffffffffffffffffffffffffffff1673ffffffffffffffffffffffffffffffffffffffff1681526020019081526020016000206000828254611e869190613e22565b925050819055508173ffffffffffffffffffffffffffffffffffffffff16600073ffffffffffffffffffffffffffffffffffffffff167fddf252ad1be2c89b69c2b068fc378daa952ba7f163c4a11628f55a4df523b3ef83604051611eeb9190613d03565b60405180910390a3611eff600083836128a8565b5050565b600033905090565b600073ffffffffffffffffffffffffffffffffffffffff168373ffffffffffffffffffffffffffffffffffffffff161415611f7b576040517f08c379a0000000000000000000000000000000000000000000000000000000008152600401611f7290613c43565b60405180910390fd5b600073ffffffffffffffffffffffffffffffffffffffff168273ffffffffffffffffffffffffffffffffffffffff161415611feb576040517f08c379a0000000000000000000000000000000000000000000000000000000008152600401611fe290613ae3565b60405180910390fd5b80603460008573ffffffffffffffffffffffffffffffffffffffff1673ffffffffffffffffffffffffffffffffffffffff16815260200190815260200160002060008473ffffffffffffffffffffffffffffffffffffffff1673ffffffffffffffffffffffffffffffffffffffff168152602001908152602001600020819055508173ffffffffffffffffffffffffffffffffffffffff168373ffffffffffffffffffffffffffffffffffffffff167f8c5be1e5ebec7d5bd14f71427d1e84f3dd0314c0f7b2291e5b200ac8c7c3b925836040516120c99190613d03565b60405180910390a3505050565b60fd60008573ffffffffffffffffffffffffffffffffffffffff1673ffffffffffffffffffffffffffffffffffffffff1681526020019081526020016000206040518060e001604052808473ffffffffffffffffffffffffffffffffffffffff1681526020018573ffffffffffffffffffffffffffffffffffffffff16815260200183815260200160fb548152602001428152602001600060048111156121805761217f614191565b5b815260200160405180602001604052806000815250815250908060018154018082558091505060019003906000526020600020906007020160009091909190915060008201518160000160006101000a81548173ffffffffffffffffffffffffffffffffffffffff021916908373ffffffffffffffffffffffffffffffffffffffff16021790555060208201518160010160006101000a81548173ffffffffffffffffffffffffffffffffffffffff021916908373ffffffffffffffffffffffffffffffffffffffff16021790555060408201518160020155606082015181600301556080820151816004015560a08201518160050160006101000a81548160ff0219169083600481111561229857612297614191565b5b021790555060c08201518160060190805190602001906122b9929190612d98565b50505060fb60008154809291906122cf9061409c565b919050555050505050565b60006122e78484846128ad565b6000603460008673ffffffffffffffffffffffffffffffffffffffff1673ffffffffffffffffffffffffffffffffffffffff1681526020019081526020016000206000612332611f03565b73ffffffffffffffffffffffffffffffffffffffff1673ffffffffffffffffffffffffffffffffffffffff168152602001908152602001600020549050828110156123b2576040517f08c379a00000000000000000000000000000000000000000000000000000000081526004016123a990613bc3565b60405180910390fd5b6123c6856123be611f03565b858403611f0b565b60019150509392505050565b60006124007f360894a13ba1a3210667c828492db98dca3e2076cc3735a920a3ca505d382bbc60001b612b31565b60000160009054906101000a900473ffffffffffffffffffffffffffffffffffffffff16905090565b612431611f03565b73ffffffffffffffffffffffffffffffffffffffff1661244f6113e1565b73ffffffffffffffffffffffffffffffffffffffff16146124a5576040517f08c379a000000000000000000000000000000000000000000000000000000000815260040161249c90613be3565b60405180910390fd5b50565b60006124b26123d2565b90506124bd84612b3b565b6000835111806124ca5750815b156124db576124d98484612bf4565b505b60006125097f4910fdfa16fed3260ed0e7147f7cc6da11a60208b5b9406d12a635614ffd914360001b612cd8565b90508060000160009054906101000a900460ff166126725760018160000160006101000a81548160ff0219169083151502179055506125d585836040516024016125539190613924565b6040516020818303038152906040527f3659cfe6000000000000000000000000000000000000000000000000000000007bffffffffffffffffffffffffffffffffffffffffffffffffffffffff19166020820180517bffffffffffffffffffffffffffffffffffffffffffffffffffffffff8381831617835250505050612bf4565b5060008160000160006101000a81548160ff0219169083151502179055506125fb6123d2565b73ffffffffffffffffffffffffffffffffffffffff168273ffffffffffffffffffffffffffffffffffffffff1614612668576040517f08c379a000000000000000000000000000000000000000000000000000000000815260040161265f90613aa3565b60405180910390fd5b61267185612ce2565b5b5050505050565b6000606560009054906101000a900473ffffffffffffffffffffffffffffffffffffffff16905081606560006101000a81548173ffffffffffffffffffffffffffffffffffffffff021916908373ffffffffffffffffffffffffffffffffffffffff1602179055508173ffffffffffffffffffffffffffffffffffffffff168173ffffffffffffffffffffffffffffffffffffffff167f8be0079c531659141344cd1fd0a4f28419497f9722a3daafe3b4186f6b6457e060405160405180910390a35050565b600061275361274c611f03565b84846128ad565b6001905092915050565b600080823b905060008111915050919050565b600060019054906101000a900460ff166127bf576040517f08c379a00000000000000000000000000000000000000000000000000000000081526004016127b690613c63565b60405180910390fd5b565b600060019054906101000a900460ff16612810576040517f08c379a000000000000000000000000000000000000000000000000000000000815260040161280790613c63565b60405180910390fd5b8160369080519060200190612826929190612d98565b50806037908051906020019061283d929190612d98565b505050565b600060019054906101000a900460ff16612891576040517f08c379a000000000000000000000000000000000000000000000000000000000815260040161288890613c63565b60405180910390fd5b6128a161289c611f03565b612679565b565b505050565b505050565b600073ffffffffffffffffffffffffffffffffffffffff168373ffffffffffffffffffffffffffffffffffffffff16141561291d576040517f08c379a000000000000000000000000000000000000000000000000000000000815260040161291490613c23565b60405180910390fd5b600073ffffffffffffffffffffffffffffffffffffffff168273ffffffffffffffffffffffffffffffffffffffff16141561298d576040517f08c379a000000000000000000000000000000000000000000000000000000000815260040161298490613a83565b60405180910390fd5b6129988383836128a3565b6000603360008573ffffffffffffffffffffffffffffffffffffffff1673ffffffffffffffffffffffffffffffffffffffff16815260200190815260200160002054905081811015612a1f576040517f08c379a0000000000000000000000000000000000000000000000000000000008152600401612a1690613b23565b60405180910390fd5b818103603360008673ffffffffffffffffffffffffffffffffffffffff1673ffffffffffffffffffffffffffffffffffffffff1681526020019081526020016000208190555081603360008573ffffffffffffffffffffffffffffffffffffffff1673ffffffffffffffffffffffffffffffffffffffff1681526020019081526020016000206000828254612ab49190613e22565b925050819055508273ffffffffffffffffffffffffffffffffffffffff168473ffffffffffffffffffffffffffffffffffffffff167fddf252ad1be2c89b69c2b068fc378daa952ba7f163c4a11628f55a4df523b3ef84604051612b189190613d03565b60405180910390a3612b2b8484846128a8565b50505050565b6000819050919050565b612b448161275d565b612b83576040517f08c379a0000000000000000000000000000000000000000000000000000000008152600401612b7a90613ba3565b60405180910390fd5b80612bb07f360894a13ba1a3210667c828492db98dca3e2076cc3735a920a3ca505d382bbc60001b612b31565b60000160006101000a81548173ffffffffffffffffffffffffffffffffffffffff021916908373ffffffffffffffffffffffffffffffffffffffff16021790555050565b6060612bff8361275d565b612c3e576040517f08c379a0000000000000000000000000000000000000000000000000000000008152600401612c3590613c03565b60405180910390fd5b6000808473ffffffffffffffffffffffffffffffffffffffff1684604051612c6691906138bc565b600060405180830381855af49150503d8060008114612ca1576040519150601f19603f3d011682016040523d82523d6000602084013e612ca6565b606091505b5091509150612cce82826040518060600160405280602781526020016148dc60279139612d31565b9250505092915050565b6000819050919050565b612ceb81612b3b565b8073ffffffffffffffffffffffffffffffffffffffff167fbc7cd75a20ee27fd9adebab32041f755214dbc6bffa90cc0225b39da2e5c2d3b60405160405180910390a250565b60608315612d4157829050612d91565b600083511115612d545782518084602001fd5b816040517f08c379a0000000000000000000000000000000000000000000000000000000008152600401612d889190613a61565b60405180910390fd5b9392505050565b828054612da490614039565b90600052602060002090601f016020900481019282612dc65760008555612e0d565b82601f10612ddf57805160ff1916838001178555612e0d565b82800160010185558215612e0d579182015b82811115612e0c578251825591602001919060010190612df1565b5b509050612e1a9190612ea4565b5090565b828054612e2a90614039565b90600052602060002090601f016020900481019282612e4c5760008555612e93565b82601f10612e6557803560ff1916838001178555612e93565b82800160010185558215612e93579182015b82811115612e92578235825591602001919060010190612e77565b5b509050612ea09190612ea4565b5090565b5b80821115612ebd576000816000905550600101612ea5565b5090565b6000612ed4612ecf84613d5e565b613d39565b905082815260208101848484011115612ef057612eef614271565b5b612efb848285613ff7565b509392505050565b6000612f16612f1184613d8f565b613d39565b905082815260208101848484011115612f3257612f31614271565b5b612f3d848285613ff7565b509392505050565b600081359050612f548161487f565b92915050565b600081359050612f6981614896565b92915050565b600082601f830112612f8457612f83614267565b5b8135612f94848260208601612ec1565b91505092915050565b60008083601f840112612fb357612fb2614267565b5b8235905067ffffffffffffffff811115612fd057612fcf614262565b5b602083019150836001820283011115612fec57612feb61426c565b5b9250929050565b600082601f83011261300857613007614267565b5b8135613018848260208601612f03565b91505092915050565b600081359050613030816148ad565b92915050565b600081359050613045816148c4565b92915050565b6000602082840312156130615761306061427b565b5b600061306f84828501612f45565b91505092915050565b6000806040838503121561308f5761308e61427b565b5b600061309d85828601612f45565b92505060206130ae85828601612f45565b9150509250929050565b6000806000606084860312156130d1576130d061427b565b5b60006130df86828701612f45565b93505060206130f086828701612f45565b925050604061310186828701613021565b9150509250925092565b600080604083850312156131225761312161427b565b5b600061313085828601612f45565b925050602083013567ffffffffffffffff81111561315157613150614276565b5b61315d85828601612f6f565b9150509250929050565b6000806040838503121561317e5761317d61427b565b5b600061318c85828601612f45565b925050602061319d85828601613021565b9150509250929050565b6000806000606084860312156131c0576131bf61427b565b5b60006131ce86828701612f45565b93505060206131df86828701613021565b92505060406131f086828701613036565b9150509250925092565b6000806000806000608086880312156132165761321561427b565b5b600061322488828901612f45565b955050602061323588828901613021565b945050604061324688828901613036565b935050606086013567ffffffffffffffff81111561326757613266614276565b5b61327388828901612f9d565b92509250509295509295909350565b6000602082840312156132985761329761427b565b5b60006132a684828501612f5a565b91505092915050565b6000806000606084860312156132c8576132c761427b565b5b600084013567ffffffffffffffff8111156132e6576132e5614276565b5b6132f286828701612ff3565b935050602084013567ffffffffffffffff81111561331357613312614276565b5b61331f86828701612ff3565b925050604061333086828701612f45565b9150509250925092565b6000602082840312156133505761334f61427b565b5b600061335e84828501613021565b91505092915050565b60006020828403121561337d5761337c61427b565b5b600061338b84828501613036565b91505092915050565b61339d81613ee0565b82525050565b6133b46133af82613ee0565b61410f565b82525050565b6133c381613ef2565b82525050565b6133d281613efe565b82525050565b60006133e382613de5565b6133ed8185613dfb565b93506133fd818560208601614006565b80840191505092915050565b61341281613fe5565b82525050565b600061342382613df0565b61342d8185613e06565b935061343d818560208601614006565b61344681614280565b840191505092915050565b600061345c82613df0565b6134668185613e17565b9350613476818560208601614006565b80840191505092915050565b6000815461348f81614039565b6134998186613e06565b945060018216600081146134b457600181146134c6576134f9565b60ff19831686526020860193506134f9565b6134cf85613dd0565b60005b838110156134f1578154818901526001820191506020810190506134d2565b808801955050505b50505092915050565b6000815461350f81614039565b6135198186613e17565b94506001821660008114613534576001811461354557613578565b60ff19831686528186019350613578565b61354e85613dd0565b60005b8381101561357057815481890152600182019150602081019050613551565b838801955050505b50505092915050565b600061358e602383613e06565b9150613599826142ab565b604082019050919050565b60006135b1602f83613e06565b91506135bc826142fa565b604082019050919050565b60006135d4602683613e06565b91506135df82614349565b604082019050919050565b60006135f7602283613e06565b915061360282614398565b604082019050919050565b600061361a602c83613e06565b9150613625826143e7565b604082019050919050565b600061363d600283613e17565b915061364882614436565b600282019050919050565b6000613660602683613e06565b915061366b8261445f565b604082019050919050565b6000613683602c83613e06565b915061368e826144ae565b604082019050919050565b60006136a6600a83613e06565b91506136b1826144fd565b602082019050919050565b60006136c9602e83613e06565b91506136d482614526565b604082019050919050565b60006136ec602d83613e06565b91506136f782614575565b604082019050919050565b600061370f602883613e06565b915061371a826145c4565b604082019050919050565b6000613732602083613e06565b915061373d82614613565b602082019050919050565b6000613755600c83613e17565b91506137608261463c565b600c82019050919050565b6000613778602683613e06565b915061378382614665565b604082019050919050565b600061379b602583613e06565b91506137a6826146b4565b604082019050919050565b60006137be602483613e06565b91506137c982614703565b604082019050919050565b60006137e1602b83613e06565b91506137ec82614752565b604082019050919050565b6000613804601183613e06565b915061380f826147a1565b602082019050919050565b6000613827602583613e06565b9150613832826147ca565b604082019050919050565b600061384a601583613e06565b915061385582614819565b602082019050919050565b600061386d601f83613e06565b915061387882614842565b602082019050919050565b61388c81613f67565b82525050565b61389b81613f71565b82525050565b60006138ad82846133a3565b60148201915081905092915050565b60006138c882846133d8565b915081905092915050565b60006138df8285613502565b91506138ea82613748565b91506138f68284613451565b91508190509392505050565b600061390d82613630565b915061391982846133d8565b915081905092915050565b60006020820190506139396000830184613394565b92915050565b600060e082019050613954600083018a613394565b6139616020830189613394565b61396e6040830188613883565b61397b6060830187613883565b6139886080830186613883565b61399560a0830185613409565b81810360c08301526139a78184613418565b905098975050505050505050565b600060e0820190506139ca600083018a613394565b6139d76020830189613394565b6139e46040830188613883565b6139f16060830187613883565b6139fe6080830186613883565b613a0b60a0830185613409565b81810360c0830152613a1d8184613482565b905098975050505050505050565b6000602082019050613a4060008301846133ba565b92915050565b6000602082019050613a5b60008301846133c9565b92915050565b60006020820190508181036000830152613a7b8184613418565b905092915050565b60006020820190508181036000830152613a9c81613581565b9050919050565b60006020820190508181036000830152613abc816135a4565b9050919050565b60006020820190508181036000830152613adc816135c7565b9050919050565b60006020820190508181036000830152613afc816135ea565b9050919050565b60006020820190508181036000830152613b1c8161360d565b9050919050565b60006020820190508181036000830152613b3c81613653565b9050919050565b60006020820190508181036000830152613b5c81613676565b9050919050565b60006020820190508181036000830152613b7c81613699565b9050919050565b60006020820190508181036000830152613b9c816136bc565b9050919050565b60006020820190508181036000830152613bbc816136df565b9050919050565b60006020820190508181036000830152613bdc81613702565b9050919050565b60006020820190508181036000830152613bfc81613725565b9050919050565b60006020820190508181036000830152613c1c8161376b565b9050919050565b60006020820190508181036000830152613c3c8161378e565b9050919050565b60006020820190508181036000830152613c5c816137b1565b9050919050565b60006020820190508181036000830152613c7c816137d4565b9050919050565b60006020820190508181036000830152613c9c816137f7565b9050919050565b60006020820190508181036000830152613cbc8161381a565b9050919050565b60006020820190508181036000830152613cdc8161383d565b9050919050565b60006020820190508181036000830152613cfc81613860565b9050919050565b6000602082019050613d186000830184613883565b92915050565b6000602082019050613d336000830184613892565b92915050565b6000613d43613d54565b9050613d4f828261406b565b919050565b6000604051905090565b600067ffffffffffffffff821115613d7957613d7861421e565b5b613d8282614280565b9050602081019050919050565b600067ffffffffffffffff821115613daa57613da961421e565b5b613db382614280565b9050602081019050919050565b6000819050602082019050919050565b60008190508160005260206000209050919050565b600081519050919050565b600081519050919050565b600081905092915050565b600082825260208201905092915050565b600081905092915050565b6000613e2d82613f67565b9150613e3883613f67565b9250827fffffffffffffffffffffffffffffffffffffffffffffffffffffffffffffffff03821115613e6d57613e6c614133565b5b828201905092915050565b6000613e8382613f71565b9150613e8e83613f71565b92508260ff03821115613ea457613ea3614133565b5b828201905092915050565b6000613eba82613f71565b9150613ec583613f71565b925082613ed557613ed4614162565b5b828204905092915050565b6000613eeb82613f47565b9050919050565b60008115159050919050565b60007fff0000000000000000000000000000000000000000000000000000000000000082169050919050565b6000819050919050565b6000819050613f428261486b565b919050565b600073ffffffffffffffffffffffffffffffffffffffff82169050919050565b6000819050919050565b600060ff82169050919050565b6000613f8982613de5565b82613f9384613dc0565b9050613f9e8161424d565b92506020821015613fde57613fd97fffffffffffffffffffffffffffffffffffffffffffffffffffffffffffffffff8360200360080261429e565b831692505b5050919050565b6000613ff082613f34565b9050919050565b82818337600083830152505050565b60005b83811015614024578082015181840152602081019050614009565b83811115614033576000848401525b50505050565b6000600282049050600182168061405157607f821691505b60208210811415614065576140646141c0565b5b50919050565b61407482614280565b810181811067ffffffffffffffff821117156140935761409261421e565b5b80604052505050565b60006140a782613f67565b91507fffffffffffffffffffffffffffffffffffffffffffffffffffffffffffffffff8214156140da576140d9614133565b5b600182019050919050565b60006140f082613f71565b915060ff82141561410457614103614133565b5b600182019050919050565b600061411a82614121565b9050919050565b600061412c82614291565b9050919050565b7f4e487b7100000000000000000000000000000000000000000000000000000000600052601160045260246000fd5b7f4e487b7100000000000000000000000000000000000000000000000000000000600052601260045260246000fd5b7f4e487b7100000000000000000000000000000000000000000000000000000000600052602160045260246000fd5b7f4e487b7100000000000000000000000000000000000000000000000000000000600052602260045260246000fd5b7f4e487b7100000000000000000000000000000000000000000000000000000000600052603260045260246000fd5b7f4e487b7100000000000000000000000000000000000000000000000000000000600052604160045260246000fd5b60006142598251613f2a565b80915050919050565b600080fd5b600080fd5b600080fd5b600080fd5b600080fd5b600080fd5b6000601f19601f8301169050919050565b60008160601b9050919050565b600082821b905092915050565b7f45524332303a207472616e7366657220746f20746865207a65726f206164647260008201527f6573730000000000000000000000000000000000000000000000000000000000602082015250565b7f45524331393637557067726164653a207570677261646520627265616b73206660008201527f7572746865722075706772616465730000000000000000000000000000000000602082015250565b7f4f776e61626c653a206e6577206f776e657220697320746865207a65726f206160008201527f6464726573730000000000000000000000000000000000000000000000000000602082015250565b7f45524332303a20617070726f766520746f20746865207a65726f20616464726560008201527f7373000000000000000000000000000000000000000000000000000000000000602082015250565b7f46756e6374696f6e206d7573742062652063616c6c6564207468726f7567682060008201527f64656c656761746563616c6c0000000000000000000000000000000000000000602082015250565b7f3078000000000000000000000000000000000000000000000000000000000000600082015250565b7f45524332303a207472616e7366657220616d6f756e742065786365656473206260008201527f616c616e63650000000000000000000000000000000000000000000000000000602082015250565b7f46756e6374696f6e206d7573742062652063616c6c6564207468726f7567682060008201527f6163746976652070726f78790000000000000000000000000000000000000000602082015250565b7f4e6f7420666f756e642100000000000000000000000000000000000000000000600082015250565b7f496e697469616c697a61626c653a20636f6e747261637420697320616c72656160008201527f647920696e697469616c697a6564000000000000000000000000000000000000602082015250565b7f455243313936373a206e657720696d706c656d656e746174696f6e206973206e60008201527f6f74206120636f6e747261637400000000000000000000000000000000000000602082015250565b7f45524332303a207472616e7366657220616d6f756e742065786365656473206160008201527f6c6c6f77616e6365000000000000000000000000000000000000000000000000602082015250565b7f4f776e61626c653a2063616c6c6572206973206e6f7420746865206f776e6572600082015250565b7f2075706461746564206279200000000000000000000000000000000000000000600082015250565b7f416464726573733a2064656c65676174652063616c6c20746f206e6f6e2d636f60008201527f6e74726163740000000000000000000000000000000000000000000000000000602082015250565b7f45524332303a207472616e736665722066726f6d20746865207a65726f20616460008201527f6472657373000000000000000000000000000000000000000000000000000000602082015250565b7f45524332303a20617070726f76652066726f6d20746865207a65726f2061646460008201527f7265737300000000000000000000000000000000000000000000000000000000602082015250565b7f496e697469616c697a61626c653a20636f6e7472616374206973206e6f74206960008201527f6e697469616c697a696e67000000000000000000000000000000000000000000602082015250565b7f4e6f207570646174652072696768747321000000000000000000000000000000600082015250565b7f45524332303a2064656372656173656420616c6c6f77616e63652062656c6f7760008201527f207a65726f000000000000000000000000000000000000000000000000000000602082015250565b7f496e76616c6964207061796d656e742074797065210000000000000000000000600082015250565b7f45524332303a206d696e7420746f20746865207a65726f206164647265737300600082015250565b6005811061487c5761487b614191565b5b50565b61488881613ee0565b811461489357600080fd5b50565b61489f81613f2a565b81146148aa57600080fd5b50565b6148b681613f67565b81146148c157600080fd5b50565b6148cd81613f71565b81146148d857600080fd5b5056fe416464726573733a206c6f772d6c6576656c2064656c65676174652063616c6c206661696c6564a264697066735822122027d2ac0cc9ac023872586d9bf977b51444dbfa2e5613b9c8c1b14db5c472ae9c64736f6c63430008070033",
  "linkReferences": {},
  "deployedLinkReferences": {}
}